{
  "_format": "hh-sol-artifact-1",
  "contractName": "EternalVirtualPool",
  "sourceName": "contracts/farmings/eternalFarming/EternalVirtualPool.sol",
  "abi": [
    {
      "inputs": [
        {
          "internalType": "address",
          "name": "_farmingCenterAddress",
          "type": "address"
        },
        {
          "internalType": "address",
          "name": "_farmingAddress",
          "type": "address"
        },
        {
          "internalType": "address",
          "name": "_pool",
          "type": "address"
        }
      ],
      "stateMutability": "nonpayable",
      "type": "constructor"
    },
    {
      "inputs": [
        {
          "internalType": "uint256",
          "name": "token0Amount",
          "type": "uint256"
        },
        {
          "internalType": "uint256",
          "name": "token1Amount",
          "type": "uint256"
        }
      ],
      "name": "addRewards",
      "outputs": [],
      "stateMutability": "nonpayable",
      "type": "function"
    },
    {
      "inputs": [
        {
          "internalType": "uint32",
          "name": "currentTimestamp",
          "type": "uint32"
        },
        {
          "internalType": "int24",
          "name": "bottomTick",
          "type": "int24"
        },
        {
          "internalType": "int24",
          "name": "topTick",
          "type": "int24"
        },
        {
          "internalType": "int128",
          "name": "liquidityDelta",
          "type": "int128"
        },
        {
          "internalType": "int24",
          "name": "currentTick",
          "type": "int24"
        }
      ],
      "name": "applyLiquidityDeltaToPosition",
      "outputs": [],
      "stateMutability": "nonpayable",
      "type": "function"
    },
    {
      "inputs": [
        {
          "internalType": "int24",
          "name": "nextTick",
          "type": "int24"
        },
        {
          "internalType": "bool",
          "name": "zeroToOne",
          "type": "bool"
        }
      ],
      "name": "cross",
      "outputs": [],
      "stateMutability": "nonpayable",
      "type": "function"
    },
    {
      "inputs": [],
      "name": "currentLiquidity",
      "outputs": [
        {
          "internalType": "uint128",
          "name": "",
          "type": "uint128"
        }
      ],
      "stateMutability": "view",
      "type": "function"
    },
    {
      "inputs": [],
      "name": "deactivate",
      "outputs": [],
      "stateMutability": "nonpayable",
      "type": "function"
    },
    {
      "inputs": [],
      "name": "deactivated",
      "outputs": [
        {
          "internalType": "bool",
          "name": "",
          "type": "bool"
        }
      ],
      "stateMutability": "view",
      "type": "function"
    },
    {
      "inputs": [
        {
          "internalType": "uint256",
          "name": "token0Amount",
          "type": "uint256"
        },
        {
          "internalType": "uint256",
          "name": "token1Amount",
          "type": "uint256"
        }
      ],
      "name": "decreaseRewards",
      "outputs": [],
      "stateMutability": "nonpayable",
      "type": "function"
    },
    {
      "inputs": [],
      "name": "distributeRewards",
      "outputs": [],
      "stateMutability": "nonpayable",
      "type": "function"
    },
    {
      "inputs": [],
      "name": "farmingAddress",
      "outputs": [
        {
          "internalType": "address",
          "name": "",
          "type": "address"
        }
      ],
      "stateMutability": "view",
      "type": "function"
    },
    {
      "inputs": [],
      "name": "farmingCenterAddress",
      "outputs": [
        {
          "internalType": "address",
          "name": "",
          "type": "address"
        }
      ],
      "stateMutability": "view",
      "type": "function"
    },
    {
      "inputs": [
        {
          "internalType": "int24",
          "name": "bottomTick",
          "type": "int24"
        },
        {
          "internalType": "int24",
          "name": "topTick",
          "type": "int24"
        }
      ],
      "name": "getInnerRewardsGrowth",
      "outputs": [
        {
          "internalType": "uint256",
          "name": "rewardGrowthInside0",
          "type": "uint256"
        },
        {
          "internalType": "uint256",
          "name": "rewardGrowthInside1",
          "type": "uint256"
        }
      ],
      "stateMutability": "view",
      "type": "function"
    },
    {
      "inputs": [
        {
          "internalType": "int24",
          "name": "bottomTick",
          "type": "int24"
        },
        {
          "internalType": "int24",
          "name": "topTick",
          "type": "int24"
        }
      ],
      "name": "getInnerSecondsPerLiquidity",
      "outputs": [
        {
          "internalType": "uint160",
          "name": "innerSecondsSpentPerLiquidity",
          "type": "uint160"
        }
      ],
      "stateMutability": "view",
      "type": "function"
    },
    {
      "inputs": [],
      "name": "globalSecondsPerLiquidityCumulative",
      "outputs": [
        {
          "internalType": "uint160",
          "name": "",
          "type": "uint160"
        }
      ],
      "stateMutability": "view",
      "type": "function"
    },
    {
      "inputs": [],
      "name": "globalTick",
      "outputs": [
        {
          "internalType": "int24",
          "name": "",
          "type": "int24"
        }
      ],
      "stateMutability": "view",
      "type": "function"
    },
    {
      "inputs": [
        {
          "internalType": "uint32",
          "name": "currentTimestamp",
          "type": "uint32"
        }
      ],
      "name": "increaseCumulative",
      "outputs": [
        {
          "internalType": "enum IAlgebraVirtualPool.Status",
          "name": "res",
          "type": "uint8"
        }
      ],
      "stateMutability": "nonpayable",
      "type": "function"
    },
    {
      "inputs": [],
      "name": "pool",
      "outputs": [
        {
          "internalType": "address",
          "name": "",
          "type": "address"
        }
      ],
      "stateMutability": "view",
      "type": "function"
    },
    {
      "inputs": [],
      "name": "prevTimestamp",
      "outputs": [
        {
          "internalType": "uint32",
          "name": "",
          "type": "uint32"
        }
      ],
      "stateMutability": "view",
      "type": "function"
    },
    {
      "inputs": [],
      "name": "rewardRate0",
      "outputs": [
        {
          "internalType": "uint128",
          "name": "",
          "type": "uint128"
        }
      ],
      "stateMutability": "view",
      "type": "function"
    },
    {
      "inputs": [],
      "name": "rewardRate1",
      "outputs": [
        {
          "internalType": "uint128",
          "name": "",
          "type": "uint128"
        }
      ],
      "stateMutability": "view",
      "type": "function"
    },
    {
      "inputs": [],
      "name": "rewardRates",
      "outputs": [
        {
          "internalType": "uint128",
          "name": "rate0",
          "type": "uint128"
        },
        {
          "internalType": "uint128",
          "name": "rate1",
          "type": "uint128"
        }
      ],
      "stateMutability": "view",
      "type": "function"
    },
    {
      "inputs": [],
      "name": "rewardReserve0",
      "outputs": [
        {
          "internalType": "uint256",
          "name": "",
          "type": "uint256"
        }
      ],
      "stateMutability": "view",
      "type": "function"
    },
    {
      "inputs": [],
      "name": "rewardReserve1",
      "outputs": [
        {
          "internalType": "uint256",
          "name": "",
          "type": "uint256"
        }
      ],
      "stateMutability": "view",
      "type": "function"
    },
    {
      "inputs": [],
      "name": "rewardReserves",
      "outputs": [
        {
          "internalType": "uint256",
          "name": "reserve0",
          "type": "uint256"
        },
        {
          "internalType": "uint256",
          "name": "reserve1",
          "type": "uint256"
        }
      ],
      "stateMutability": "view",
      "type": "function"
    },
    {
      "inputs": [
        {
          "internalType": "uint128",
          "name": "rate0",
          "type": "uint128"
        },
        {
          "internalType": "uint128",
          "name": "rate1",
          "type": "uint128"
        }
      ],
      "name": "setRates",
      "outputs": [],
      "stateMutability": "nonpayable",
      "type": "function"
    },
    {
      "inputs": [
        {
          "internalType": "int24",
          "name": "",
          "type": "int24"
        }
      ],
      "name": "ticks",
      "outputs": [
        {
          "internalType": "uint128",
          "name": "liquidityTotal",
          "type": "uint128"
        },
        {
          "internalType": "int128",
          "name": "liquidityDelta",
          "type": "int128"
        },
        {
          "internalType": "uint256",
          "name": "outerFeeGrowth0Token",
          "type": "uint256"
        },
        {
          "internalType": "uint256",
          "name": "outerFeeGrowth1Token",
          "type": "uint256"
        },
        {
          "internalType": "int56",
          "name": "outerTickCumulative",
          "type": "int56"
        },
        {
          "internalType": "uint160",
          "name": "outerSecondsPerLiquidity",
          "type": "uint160"
        },
        {
          "internalType": "uint32",
          "name": "outerSecondsSpent",
          "type": "uint32"
        },
        {
          "internalType": "bool",
          "name": "initialized",
          "type": "bool"
        }
      ],
      "stateMutability": "view",
      "type": "function"
    },
    {
      "inputs": [],
      "name": "timeOutside",
      "outputs": [
        {
          "internalType": "uint32",
          "name": "",
          "type": "uint32"
        }
      ],
      "stateMutability": "view",
      "type": "function"
    },
    {
      "inputs": [],
      "name": "totalRewardGrowth0",
      "outputs": [
        {
          "internalType": "uint256",
          "name": "",
          "type": "uint256"
        }
      ],
      "stateMutability": "view",
      "type": "function"
    },
    {
      "inputs": [],
      "name": "totalRewardGrowth1",
      "outputs": [
        {
          "internalType": "uint256",
          "name": "",
          "type": "uint256"
        }
      ],
      "stateMutability": "view",
      "type": "function"
    }
  ],
  "bytecode": "0x60e060405234801561001057600080fd5b50604051611d9d380380611d9d8339818101604052606081101561003357600080fd5b5080516020820151604090920151606082811b6001600160601b031990811660805284821b811660a0529082901b1660c0526003805463ffffffff60a01b1916600160a01b4263ffffffff16021790556001600160a01b039182169282169116611cb56100e8600039806105d45280610a0f5280610d355250806107d45280610b505280610c545280610e165280610ef3528061103452806111cd5250806105955280610cf65280610fd65250611cb56000f3fe608060405234801561001057600080fd5b50600436106101c45760003560e01c80637f463bb8116100f9578063ae85593911610097578063da63158111610071578063da63158114610497578063f0de8228146104ba578063f30dba93146104c2578063fc41aa091461055a576101c4565b8063ae8559391461047f578063d3369fd714610487578063d576dfc01461048f576101c4565b80638eebc5d6116100d35780638eebc5d614610405578063a1ec508a14610426578063a69252af1461042e578063a88a5c1614610436576101c4565b80637f463bb8146103a75780638a2ade58146103de5780638e76c332146103e6576101c4565b806351b42b001161016657806363f0580b1161014057806363f0580b1461034b5780636f4a2cd014610353578063735dd1891461035b5780637f37605914610363576101c4565b806351b42b001461030d5780635354d98a14610315578063556ed30e1461032f576101c4565b806316f0115b116101a257806316f0115b1461027d5780631fcd27fd146102ae5780632ca1a895146102d857806346caf2ae14610305576101c4565b806301342b19146101c95780630bd6f200146101f35780630f1019bc14610236575b600080fd5b6101f1600480360360408110156101df57600080fd5b50803560020b9060200135151561057d565b005b61021d6004803603604081101561020957600080fd5b508035600290810b9160200135900b61077b565b6040805192835260208301919091528051918290030190f35b6101f1600480360360a081101561024c57600080fd5b5063ffffffff813516906020810135600290810b916040810135820b916060820135600f0b9160800135900b6107bc565b610285610a0d565b6040805173ffffffffffffffffffffffffffffffffffffffff9092168252519081900360200190f35b610285600480360360408110156102c457600080fd5b508035600290810b9160200135900b610a31565b6102e0610b08565b604080516fffffffffffffffffffffffffffffffff9092168252519081900360200190f35b6102e0610b20565b6101f1610b38565b61031d610c0b565b60408051918252519081900360200190f35b610337610c11565b604080519115158252519081900360200190f35b61031d610c36565b6101f1610c3c565b61031d610cd6565b6103866004803603602081101561037957600080fd5b503563ffffffff16610cdc565b6040518082600281111561039657fe5b815260200191505060405180910390f35b6101f1600480360360408110156103bd57600080fd5b506fffffffffffffffffffffffffffffffff81358116916020013516610dfe565b610285610ef1565b6103ee610f15565b6040805160029290920b8252519081900360200190f35b61040d610f32565b6040805163ffffffff9092168252519081900360200190f35b6102e0610f55565b61031d610f81565b61043e610f87565b60405180836fffffffffffffffffffffffffffffffff168152602001826fffffffffffffffffffffffffffffffff1681526020019250505060405180910390f35b610285610fb8565b610285610fd4565b61040d610ff8565b6101f1600480360360408110156104ad57600080fd5b508035906020013561101c565b61021d6110e6565b6104e2600480360360208110156104d857600080fd5b503560020b6110f0565b604080516fffffffffffffffffffffffffffffffff9099168952600f9790970b602089015287870195909552606087019390935260069190910b608086015273ffffffffffffffffffffffffffffffffffffffff1660a085015263ffffffff1660c0840152151560e083015251908190036101000190f35b6101f16004803603604081101561057057600080fd5b50803590602001356111b5565b3373ffffffffffffffffffffffffffffffffffffffff7f00000000000000000000000000000000000000000000000000000000000000001614806105f657503373ffffffffffffffffffffffffffffffffffffffff7f000000000000000000000000000000000000000000000000000000000000000016145b61066157604080517f08c379a000000000000000000000000000000000000000000000000000000000815260206004820181905260248201527f6f6e6c7920706f6f6c2063616e2063616c6c20746869732066756e6374696f6e604482015290519081900360640190fd5b600282810b900b6000908152602081905260409020600301547f0100000000000000000000000000000000000000000000000000000000000000900460ff161561071e5760006106b083611277565b905081156106bc576000035b6002546106db906fffffffffffffffffffffffffffffffff16826112aa565b600280547fffffffffffffffffffffffffffffffff00000000000000000000000000000000166fffffffffffffffffffffffffffffffff92909216919091179055505b80610729578161072e565b600182035b6002805491810b62ffffff16700100000000000000000000000000000000027fffffffffffffffffffffffffff000000ffffffffffffffffffffffffffffffff9092169190911790555050565b6002805460075460085460009384936107b1938593899389937001000000000000000000000000000000009004900b91906113ee565b915091509250929050565b3373ffffffffffffffffffffffffffffffffffffffff7f0000000000000000000000000000000000000000000000000000000000000000161461084a576040517f08c379a0000000000000000000000000000000000000000000000000000000008152600401808060200182810382526023815260200180611c866023913960400191505060405180910390fd5b600280547fffffffffffffffffffffffffff000000ffffffffffffffffffffffffffffffff1670010000000000000000000000000000000062ffffff84840b160217905560035474010000000000000000000000000000000000000000900463ffffffff90811690861611156108c5576108c385611490565b505b81600f0b600014610a06576000806108e08684866000611733565b156108f357600191506108f3828761175a565b6109008584866001611733565b1561091257506001610912818661175a565b8560020b8360020b1215801561092d57508460020b8360020b125b1561099357600254610951906fffffffffffffffffffffffffffffffff16856112aa565b600280547fffffffffffffffffffffffffffffffff00000000000000000000000000000000166fffffffffffffffffffffffffffffffff929092169190911790555b600084600f0b1215610a035781156109d157600286810b810b6000908152602081905260408120818155600181018290559182018190556003909101555b8015610a0357600285810b810b6000908152602081905260408120818155600181018290559182018190556003909101555b50505b5050505050565b7f000000000000000000000000000000000000000000000000000000000000000081565b600282810b80820b60009081526020819052604080822060039081015486860b860b845291832001548454929473ffffffffffffffffffffffffffffffffffffffff6701000000000000009384900481169593909204909116927001000000000000000000000000000000009004810b900b1215610ab25790039050610b02565b6002805485820b700100000000000000000000000000000000909104820b90910b1215610afe5760035473ffffffffffffffffffffffffffffffffffffffff1691909103039050610b02565b0390505b92915050565b6004546fffffffffffffffffffffffffffffffff1681565b6002546fffffffffffffffffffffffffffffffff1681565b3373ffffffffffffffffffffffffffffffffffffffff7f00000000000000000000000000000000000000000000000000000000000000001614610bc6576040517f08c379a0000000000000000000000000000000000000000000000000000000008152600401808060200182810382526023815260200180611c866023913960400191505060405180910390fd5b600380547fffffffffffffff00ffffffffffffffffffffffffffffffffffffffffffffffff167801000000000000000000000000000000000000000000000000179055565b60065481565b6003547801000000000000000000000000000000000000000000000000900460ff1681565b60085481565b3373ffffffffffffffffffffffffffffffffffffffff7f00000000000000000000000000000000000000000000000000000000000000001614610cca576040517f08c379a0000000000000000000000000000000000000000000000000000000008152600401808060200182810382526023815260200180611c866023913960400191505060405180910390fd5b610cd342611490565b50565b60055481565b60003373ffffffffffffffffffffffffffffffffffffffff7f0000000000000000000000000000000000000000000000000000000000000000161480610d5757503373ffffffffffffffffffffffffffffffffffffffff7f000000000000000000000000000000000000000000000000000000000000000016145b610dc257604080517f08c379a000000000000000000000000000000000000000000000000000000000815260206004820181905260248201527f6f6e6c7920706f6f6c2063616e2063616c6c20746869732066756e6374696f6e604482015290519081900360640190fd5b610dcb82611490565b6003549091507801000000000000000000000000000000000000000000000000900460ff1615610df9575060005b919050565b3373ffffffffffffffffffffffffffffffffffffffff7f00000000000000000000000000000000000000000000000000000000000000001614610e8c576040517f08c379a0000000000000000000000000000000000000000000000000000000008152600401808060200182810382526023815260200180611c866023913960400191505060405180910390fd5b610e9542611490565b50600480546fffffffffffffffffffffffffffffffff938416928416700100000000000000000000000000000000029316929092177fffffffffffffffffffffffffffffffff0000000000000000000000000000000016179055565b7f000000000000000000000000000000000000000000000000000000000000000081565b600280547001000000000000000000000000000000009004900b81565b600254730100000000000000000000000000000000000000900463ffffffff1681565b60045470010000000000000000000000000000000090046fffffffffffffffffffffffffffffffff1681565b60075481565b6004546fffffffffffffffffffffffffffffffff808216917001000000000000000000000000000000009004169091565b60035473ffffffffffffffffffffffffffffffffffffffff1681565b7f000000000000000000000000000000000000000000000000000000000000000081565b60035474010000000000000000000000000000000000000000900463ffffffff1681565b3373ffffffffffffffffffffffffffffffffffffffff7f000000000000000000000000000000000000000000000000000000000000000016146110aa576040517f08c379a0000000000000000000000000000000000000000000000000000000008152600401808060200182810382526023815260200180611c866023913960400191505060405180910390fd5b6110b342611490565b5081156110cb576005546110c79083611786565b6005555b80156110e2576006546110de9082611786565b6006555b5050565b6005546006549091565b60006020819052908152604090208054600182015460028301546003909301546fffffffffffffffffffffffffffffffff831693700100000000000000000000000000000000909304600f0b9290600681900b90670100000000000000810473ffffffffffffffffffffffffffffffffffffffff16907b01000000000000000000000000000000000000000000000000000000810463ffffffff16907f0100000000000000000000000000000000000000000000000000000000000000900460ff1688565b3373ffffffffffffffffffffffffffffffffffffffff7f00000000000000000000000000000000000000000000000000000000000000001614611243576040517f08c379a0000000000000000000000000000000000000000000000000000000008152600401808060200182810382526023815260200180611c866023913960400191505060405180910390fd5b61124c42611490565b508115611264576005546112609083611796565b6005555b80156110e2576006546110de9082611796565b600754600854600354600092610b029284928692919073ffffffffffffffffffffffffffffffffffffffff1684806117a6565b60008082600f0b121561135657826fffffffffffffffffffffffffffffffff168260000384039150816fffffffffffffffffffffffffffffffff161061135157604080517f08c379a000000000000000000000000000000000000000000000000000000000815260206004820152600260248201527f4c53000000000000000000000000000000000000000000000000000000000000604482015290519081900360640190fd5b610b02565b826fffffffffffffffffffffffffffffffff168284019150816fffffffffffffffffffffffffffffffff161015610b0257604080517f08c379a000000000000000000000000000000000000000000000000000000000815260206004820152600260248201527f4c41000000000000000000000000000000000000000000000000000000000000604482015290519081900360640190fd5b600285810b810b60009081526020889052604080822087840b80850b84529183209293849391929088900b1215611468578860020b8760020b1261144357816001015486039350816002015485039250611452565b81600101549350816002015492505b6001810154600282015494039390920391611483565b81600101548160010154039350816002015481600201540392505b5050965096945050505050565b60035460009063ffffffff740100000000000000000000000000000000000000009091048116830316806114c8576001915050610df9565b6002546fffffffffffffffffffffffffffffffff16801561168d576004546fffffffffffffffffffffffffffffffff8082169170010000000000000000000000000000000090041660008261151e576000611522565b6005545b90506000808311611534576000611538565b6006545b9050811561157b578386028281111561154e5750815b80830360055561157081700100000000000000000000000000000000886118d5565b600780549091019055505b80156115bc578286028181111561158f5750805b8082036006556115b181700100000000000000000000000000000000886118d5565b600880549091019055505b73ffffffffffffffffffffffffffffffffffffffff851673ffffffff00000000000000000000000000000000608088901b16816115f557fe5b600380547fffffffffffffffffffffffff000000000000000000000000000000000000000081169390920473ffffffffffffffffffffffffffffffffffffffff92831601909116919091177fffffffffffffffff00000000ffffffffffffffffffffffffffffffffffffffff167401000000000000000000000000000000000000000063ffffffff8b16021790555061172992505050565b6002805463ffffffff730100000000000000000000000000000000000000808304821686018216027fffffffffffffffffff00000000ffffffffffffffffffffffffffffffffffffff909216919091179091556003805491861674010000000000000000000000000000000000000000027fffffffffffffffff00000000ffffffffffffffffffffffffffffffffffffffff9092169190911790555b5060019392505050565b6007546008546000916117519183918891889188918580808b61198a565b95945050505050565b600881901c600190810b810b60009081526020939093526040909220805460ff9092169290921b189055565b80820382811115610b0257600080fd5b80820182811015610b0257600080fd5b600286810b810b600090815260208990526040902060038101805473ffffffffffffffffffffffffffffffffffffffff67010000000000000063ffffffff7b0100000000000000000000000000000000000000000000000000000080850482168903909116027fff00000000ffffffffffffffffffffffffffffffffffffffffffffffffffffff90931692909217828104821689039091169091027fffffffffff0000000000000000000000000000000000000000ffffffffffffff90911617600681810b8703900b66ffffffffffffff167fffffffffffffffffffffffffffffffffffffffffffffffffff0000000000000090911617905590810180548603905560018101805487039055547001000000000000000000000000000000009004600f0b979650505050505050565b6000838302817fffffffffffffffffffffffffffffffffffffffffffffffffffffffffffffffff8587098281108382030391505080841161191557600080fd5b8061192557508290049050611983565b8385870960008581038616958690049560026003880281188089028203028089028203028089028203028089028203028089028203028089029091030291819003819004600101858411909403939093029190930391909104170290505b9392505050565b600289810b900b600090815260208b90526040812080547001000000000000000000000000000000008104600f0b906fffffffffffffffffffffffffffffffff16836119d6828d6112aa565b90506d09745258e83de0d0f4e400fce79a6fffffffffffffffffffffffffffffffff821610611a6657604080517f08c379a000000000000000000000000000000000000000000000000000000000815260206004820152600260248201527f4c4f000000000000000000000000000000000000000000000000000000000000604482015290519081900360640190fd5b85611a8957611a84611a7f600f85810b908f900b611c48565b611c5e565b611a9d565b611a9d611a7f600f85810b908f900b611c6f565b84546fffffffffffffffffffffffffffffffff838116600f9390930b811670010000000000000000000000000000000002918116919091177fffffffffffffffffffffffffffffffff000000000000000000000000000000001682178655901595508216611c3657841594508c60020b8e60020b13611bea57600184018b9055600284018a90556003840180547fffffffffff0000000000000000000000000000000000000000ffffffffffffff1667010000000000000073ffffffffffffffffffffffffffffffffffffffff8c1602177fffffffffffffffffffffffffffffffffffffffffffffffffff000000000000001666ffffffffffffff60068b900b16177fff00000000ffffffffffffffffffffffffffffffffffffffffffffffffffffff167b0100000000000000000000000000000000000000000000000000000063ffffffff8a16021790555b6003840180547effffffffffffffffffffffffffffffffffffffffffffffffffffffffffffff167f01000000000000000000000000000000000000000000000000000000000000001790555b505050509a9950505050505050505050565b81810182811215600083121514610b0257600080fd5b80600f81900b8114610df957600080fd5b80820382811315600083121514610b0257600080fdfe6f6e6c79206661726d696e672063616e2063616c6c20746869732066756e6374696f6ea164736f6c6343000706000a",
  "linkReferences": {},
  "deployedLinkReferences": {}
}